{
  "_format": "hh-sol-artifact-1",
  "contractName": "Registry",
  "sourceName": "contracts/Registry.sol",
  "abi": [
    {
      "anonymous": false,
      "inputs": [
        {
          "indexed": true,
          "internalType": "address",
          "name": "previousOwner",
          "type": "address"
        },
        {
          "indexed": true,
          "internalType": "address",
          "name": "newOwner",
          "type": "address"
        }
      ],
      "name": "OwnershipTransferred",
      "type": "event"
    },
    {
      "anonymous": false,
      "inputs": [
        {
          "indexed": false,
          "internalType": "string",
          "name": "_name",
          "type": "string"
        },
        {
          "indexed": false,
          "internalType": "string",
          "name": "_server",
          "type": "string"
        }
      ],
      "name": "ServerAdded",
      "type": "event"
    },
    {
      "anonymous": false,
      "inputs": [
        {
          "indexed": false,
          "internalType": "string",
          "name": "_name",
          "type": "string"
        },
        {
          "indexed": false,
          "internalType": "string",
          "name": "_hash",
          "type": "string"
        }
      ],
      "name": "SubgraphDeployed",
      "type": "event"
    },
    {
      "inputs": [
        {
          "internalType": "string",
          "name": "a",
          "type": "string"
        },
        {
          "internalType": "string",
          "name": "b",
          "type": "string"
        }
      ],
      "name": "compareStrings",
      "outputs": [
        {
          "internalType": "bool",
          "name": "",
          "type": "bool"
        }
      ],
      "stateMutability": "pure",
      "type": "function"
    },
    {
      "inputs": [
        {
          "internalType": "string",
          "name": "_name",
          "type": "string"
        }
      ],
      "name": "getServers",
      "outputs": [
        {
          "internalType": "string[]",
          "name": "",
          "type": "string[]"
        }
      ],
      "stateMutability": "view",
      "type": "function"
    },
    {
      "inputs": [],
      "name": "owner",
      "outputs": [
        {
          "internalType": "address",
          "name": "",
          "type": "address"
        }
      ],
      "stateMutability": "view",
      "type": "function"
    },
    {
      "inputs": [
        {
          "internalType": "string",
          "name": "_name",
          "type": "string"
        },
        {
          "internalType": "string",
          "name": "_hash",
          "type": "string"
        }
      ],
      "name": "publishSubgraph",
      "outputs": [],
      "stateMutability": "nonpayable",
      "type": "function"
    },
    {
      "inputs": [
        {
          "internalType": "string",
          "name": "_subgraphName",
          "type": "string"
        },
        {
          "internalType": "string",
          "name": "_server",
          "type": "string"
        }
      ],
      "name": "registerServer",
      "outputs": [],
      "stateMutability": "nonpayable",
      "type": "function"
    },
    {
      "inputs": [],
      "name": "renounceOwnership",
      "outputs": [],
      "stateMutability": "nonpayable",
      "type": "function"
    },
    {
      "inputs": [
        {
          "internalType": "address",
          "name": "newOwner",
          "type": "address"
        }
      ],
      "name": "transferOwnership",
      "outputs": [],
      "stateMutability": "nonpayable",
      "type": "function"
    }
  ],
  "bytecode": "0x608060405234801561001057600080fd5b5061002d61002261003260201b60201c565b61003a60201b60201c565b6100fe565b600033905090565b60008060009054906101000a900473ffffffffffffffffffffffffffffffffffffffff169050816000806101000a81548173ffffffffffffffffffffffffffffffffffffffff021916908373ffffffffffffffffffffffffffffffffffffffff1602179055508173ffffffffffffffffffffffffffffffffffffffff168173ffffffffffffffffffffffffffffffffffffffff167f8be0079c531659141344cd1fd0a4f28419497f9722a3daafe3b4186f6b6457e060405160405180910390a35050565b6110708061010d6000396000f3fe608060405234801561001057600080fd5b506004361061007d5760003560e01c80638da5cb5b1161005b5780638da5cb5b146100d8578063bed34bba146100f6578063c6a29aba14610126578063f2fde38b146101425761007d565b806304ca006f14610082578063715018a6146100b2578063801de701146100bc575b600080fd5b61009c600480360381019061009791906109e9565b61015e565b6040516100a99190610cfa565b60405180910390f35b6100ba610258565b005b6100d660048036038101906100d19190610a2e565b6102e0565b005b6100e06103cc565b6040516100ed9190610cdf565b60405180910390f35b610110600480360381019061010b9190610a2e565b6103f5565b60405161011d9190610d1c565b60405180910390f35b610140600480360381019061013b9190610a2e565b610410565b005b61015c600480360381019061015791906109c0565b610692565b005b606060028383604051610172929190610caf565b9081526020016040518091039020805480602002602001604051908101604052809291908181526020016000905b8282101561024c5783829060005260206000200180546101bf90610f0a565b80601f01602080910402602001604051908101604052809291908181526020018280546101eb90610f0a565b80156102385780601f1061020d57610100808354040283529160200191610238565b820191906000526020600020905b81548152906001019060200180831161021b57829003601f168201915b5050505050815260200190600101906101a0565b50505050905092915050565b61026061078a565b73ffffffffffffffffffffffffffffffffffffffff1661027e6103cc565b73ffffffffffffffffffffffffffffffffffffffff16146102d4576040517f08c379a00000000000000000000000000000000000000000000000000000000081526004016102cb90610d8e565b60405180910390fd5b6102de6000610792565b565b6102e861078a565b73ffffffffffffffffffffffffffffffffffffffff166103066103cc565b73ffffffffffffffffffffffffffffffffffffffff161461035c576040517f08c379a000000000000000000000000000000000000000000000000000000000815260040161035390610d8e565b60405180910390fd5b8060018360405161036d9190610cc8565b9081526020016040518091039020908051906020019061038e929190610856565b507f1a3c56f4bee364e36da7380e7cf9aba9b449df0756fdd3f589bb4d0ce532aee782826040516103c0929190610d37565b60405180910390a15050565b60008060009054906101000a900473ffffffffffffffffffffffffffffffffffffffff16905090565b60008180519060200120838051906020012014905092915050565b61041861078a565b73ffffffffffffffffffffffffffffffffffffffff166104366103cc565b73ffffffffffffffffffffffffffffffffffffffff161461048c576040517f08c379a000000000000000000000000000000000000000000000000000000000815260040161048390610d8e565b60405180910390fd5b600060028360405161049e9190610cc8565b9081526020016040518091039020805480602002602001604051908101604052809291908181526020016000905b828210156105785783829060005260206000200180546104eb90610f0a565b80601f016020809104026020016040519081016040528092919081815260200182805461051790610f0a565b80156105645780601f1061053957610100808354040283529160200191610564565b820191906000526020600020905b81548152906001019060200180831161054757829003601f168201915b5050505050815260200190600101906104cc565b50505050905060005b81518110156105fa5760006105d68383815181106105c8577f4e487b7100000000000000000000000000000000000000000000000000000000600052603260045260246000fd5b6020026020010151856103f5565b905080156105e65750505061068e565b5080806105f290610f3c565b915050610581565b5060028360405161060b9190610cc8565b908152602001604051809103902082908060018154018082558091505060019003906000526020600020016000909190919091509080519060200190610652929190610856565b507f926c6fc42139853499b648521de3e72a05055ec46f8e2f506a5b9c1a77cb31db8383604051610684929190610d37565b60405180910390a1505b5050565b61069a61078a565b73ffffffffffffffffffffffffffffffffffffffff166106b86103cc565b73ffffffffffffffffffffffffffffffffffffffff161461070e576040517f08c379a000000000000000000000000000000000000000000000000000000000815260040161070590610d8e565b60405180910390fd5b600073ffffffffffffffffffffffffffffffffffffffff168173ffffffffffffffffffffffffffffffffffffffff16141561077e576040517f08c379a000000000000000000000000000000000000000000000000000000000815260040161077590610d6e565b60405180910390fd5b61078781610792565b50565b600033905090565b60008060009054906101000a900473ffffffffffffffffffffffffffffffffffffffff169050816000806101000a81548173ffffffffffffffffffffffffffffffffffffffff021916908373ffffffffffffffffffffffffffffffffffffffff1602179055508173ffffffffffffffffffffffffffffffffffffffff168173ffffffffffffffffffffffffffffffffffffffff167f8be0079c531659141344cd1fd0a4f28419497f9722a3daafe3b4186f6b6457e060405160405180910390a35050565b82805461086290610f0a565b90600052602060002090601f01602090048101928261088457600085556108cb565b82601f1061089d57805160ff19168380011785556108cb565b828001600101855582156108cb579182015b828111156108ca5782518255916020019190600101906108af565b5b5090506108d891906108dc565b5090565b5b808211156108f55760008160009055506001016108dd565b5090565b600061090c61090784610ddf565b610dae565b90508281526020810184848401111561092457600080fd5b61092f848285610ec8565b509392505050565b60008135905061094681611023565b92915050565b60008083601f84011261095e57600080fd5b8235905067ffffffffffffffff81111561097757600080fd5b60208301915083600182028301111561098f57600080fd5b9250929050565b600082601f8301126109a757600080fd5b81356109b78482602086016108f9565b91505092915050565b6000602082840312156109d257600080fd5b60006109e084828501610937565b91505092915050565b600080602083850312156109fc57600080fd5b600083013567ffffffffffffffff811115610a1657600080fd5b610a228582860161094c565b92509250509250929050565b60008060408385031215610a4157600080fd5b600083013567ffffffffffffffff811115610a5b57600080fd5b610a6785828601610996565b925050602083013567ffffffffffffffff811115610a8457600080fd5b610a9085828601610996565b9150509250929050565b6000610aa68383610b66565b905092915050565b610ab781610e80565b82525050565b6000610ac882610e1f565b610ad28185610e42565b935083602082028501610ae485610e0f565b8060005b85811015610b205784840389528151610b018582610a9a565b9450610b0c83610e35565b925060208a01995050600181019050610ae8565b50829750879550505050505092915050565b610b3b81610e92565b82525050565b6000610b4d8385610e75565b9350610b5a838584610ec8565b82840190509392505050565b6000610b7182610e2a565b610b7b8185610e53565b9350610b8b818560208601610ed7565b610b9481611012565b840191505092915050565b6000610baa82610e2a565b610bb48185610e64565b9350610bc4818560208601610ed7565b610bcd81611012565b840191505092915050565b6000610be382610e2a565b610bed8185610e75565b9350610bfd818560208601610ed7565b80840191505092915050565b6000610c16602683610e64565b91507f4f776e61626c653a206e6577206f776e657220697320746865207a65726f206160008301527f64647265737300000000000000000000000000000000000000000000000000006020830152604082019050919050565b6000610c7c602083610e64565b91507f4f776e61626c653a2063616c6c6572206973206e6f7420746865206f776e65726000830152602082019050919050565b6000610cbc828486610b41565b91508190509392505050565b6000610cd48284610bd8565b915081905092915050565b6000602082019050610cf46000830184610aae565b92915050565b60006020820190508181036000830152610d148184610abd565b905092915050565b6000602082019050610d316000830184610b32565b92915050565b60006040820190508181036000830152610d518185610b9f565b90508181036020830152610d658184610b9f565b90509392505050565b60006020820190508181036000830152610d8781610c09565b9050919050565b60006020820190508181036000830152610da781610c6f565b9050919050565b6000604051905081810181811067ffffffffffffffff82111715610dd557610dd4610fe3565b5b8060405250919050565b600067ffffffffffffffff821115610dfa57610df9610fe3565b5b601f19601f8301169050602081019050919050565b6000819050602082019050919050565b600081519050919050565b600081519050919050565b6000602082019050919050565b600082825260208201905092915050565b600082825260208201905092915050565b600082825260208201905092915050565b600081905092915050565b6000610e8b82610e9e565b9050919050565b60008115159050919050565b600073ffffffffffffffffffffffffffffffffffffffff82169050919050565b6000819050919050565b82818337600083830152505050565b60005b83811015610ef5578082015181840152602081019050610eda565b83811115610f04576000848401525b50505050565b60006002820490506001821680610f2257607f821691505b60208210811415610f3657610f35610fb4565b5b50919050565b6000610f4782610ebe565b91507fffffffffffffffffffffffffffffffffffffffffffffffffffffffffffffffff821415610f7a57610f79610f85565b5b600182019050919050565b7f4e487b7100000000000000000000000000000000000000000000000000000000600052601160045260246000fd5b7f4e487b7100000000000000000000000000000000000000000000000000000000600052602260045260246000fd5b7f4e487b7100000000000000000000000000000000000000000000000000000000600052604160045260246000fd5b6000601f19601f8301169050919050565b61102c81610e80565b811461103757600080fd5b5056fea26469706673582212200c7e4b6eb75e4e18bc0efa9e21a296556d9f9dc429a8569dc5209b19ca3fad4a64736f6c63430008000033",
  "linkReferences": {},
  "deployedLinkReferences": {}
}